:100000000A128A11DC2FFF1B0D2883137F18831718
:100010000008840A0319FF0A080000308A00040857
:10002000840A820700346134623463346434653492
:1000300066346734683469346A346B346C346D34D4
:100040006E346F3470347134723473347434753484
:1000500076347734783479347A34413442344334E2
:100060004434453446344734483449344A344B34B4
:100070004C344D344E344F34503451345234533464
:100080005434553456345734583459345A3430343F
:10009000313432343334343435343634373438341C
:1000A000393400342A340734043401340034083439
:1000B0000534023423340934063403340134023461
:1000C00004340834FE34FD34FB347734613469344D
:1000D000743469346E3467342E342E342E34003444
:0C00E000323438343734353433340034D3
:100A4E0001340034003400340F30F0007008831687
:100A5E0003138804F830F000700886050800F200D1
:100A6E008312031309147208880009110430F1006F
:100A7E00E430F000F00B412DF10B412D00008312FC
:100A8E00031309100430F100E430F000F00B4D2D8B
:100A9E00F10B4D2D00008312031309140800F20010
:100AAE008312031309147208880009150430F1002B
:100ABE00E430F000F00B612DF10B612D000083127C
:100ACE00031309100430F100E430F000F00B6D2D2B
:100ADE00F10B6D2D00008312031309140800F601AB
:100AEE0076087307840074080318740A83120313BC
:100AFE00FF000A128A1103200A128A11003A031902
:100B0E00080076087307840074080318740AFF003F
:100B1E000A128A1103200A128A110A128A11562504
:100B2E000A128A110130F5007508F607772DF300C9
:100B3E0083160313880189100911831203130914F4
:100B4E0073088800700C031C091103180915043072
:100B5E00F200E430F100F10BB22DF20BB22D0000D9
:100B6E008312031309100430F200E430F100F10B8C
:100B7E00BE2DF20BBE2D00008312031309140800C4
:100B8E0083120313270828040319F62DAB01AB0AB1
:100B9E00A81BDD2D01300310A70DA80DFF3E031D70
:100BAE00D22D0130FD007D08AB07CF2D28082A027B
:100BBE00031DE32D27082902031CEB2D2708A9028C
:100BCE002808031CAA03AA0201300310A80CA70CC4
:100BDE00FF3E031DEC2D0130AB02031DDD2D2A0857
:100BEE00A8002908A70008000030FC000030FB0018
:100BFE000030FA000030F900701C192E7408F90745
:100C0E00750803110318013E031DFA077608031138
:100C1E000318013E031DFB07770803110318013E5D
:100C2E00031DFC070130F8000310F40DF50DF60D51
:100C3E00F70DF80B1B2E01300310F30CF20CF10C18
:100C4E00F00CFF3E031D232E730872047104700412
:100C5E00031D032E7C08F3007B08F2007A08F100D6
:100C6E007908F000080083120313AF01B0013E3083
:100C7E0083120313A7000030A8000A128A117F26E0
:100C8E000A128A11831203132108AA002008A90050
:100C9E000A128A11C7250A128A1183120313280811
:100CAE00AE002708AD002D08013E84000A128A11FD
:100CBE000D200A128A11AC002F08383E84002C0831
:100CCE00831380000130AF070318B00A0030B0075D
:100CDE003008803AFF0080307F02031D782E0530E9
:100CEE002F02031C3E2E83120313BD013830080061
:100CFE00831203134108F3004008F2003F08F1008D
:100D0E003E08F0004130F700C630F6004E30F500D8
:100D1E006D30F4000A128A11FB250A128A1173082B
:100D2E0083120313C1007208C0007108BF0070085F
:100D3E00BE003930BE07303003183130BF070030E7
:100D4E0003180130C007003003180130C1073E08F8
:100D5E00A2003F08A3004008A4004108A5001030DF
:100D6E00A600250DA50CA40CA30CA20CA60BB82E48
:100D7E00FF302205A0007F302305A1000800831656
:100D8E0003138801890183120313091009111A3004
:100D9E00F400F830F300F30BD22EF40BD22E000039
:100DAE0083120313091438300A128A1136250A12D7
:100DBE008A110730F4007D30F300F30BE42EF40BB0
:100DCE00E42E38300A128A1136250A128A11C730DB
:100DDE00F300F12EF30BF02EF42EF52E38300A120E
:100DEE008A1136250A128A1108300A128A113625FE
:100DFE000A128A110F300A128A1136250A128A1126
:100E0E0001300A128A1136250A128A110C300A1282
:100E1E008A1136250A128A1180300A128A11362555
:100E2E000800831603138601A03083120313B1004A
:100E3E0031088B04053083160313810006308312AC
:100E4E00031381000A128A11C6260A128A110A1287
:100E5E008A112B250A128A11F00101300A128A1109
:100E6E009E250A128A115330F3008030F4000A12C4
:100E7E008A1176250A128A118316031386010F3002
:100E8E00880083120313B50106080738860035085B
:100E9E00503E84000A128A110D200A128A1106058C
:100EAE008600B40134084C3E84000A128A110D20CB
:100EBE000A128A110805031D892F073083120313A6
:100ECE00B2007C30B100B10B6A2FB20B6A2F00005A
:100EDE008312031334084C3E84000A128A110D202B
:100EEE000A128A110805031D892F3508B100023038
:100EFE000310B10DFF3E031D7F2F34083107B700DD
:100F0E00B601B60A0130B1003108B407043034021C
:100F1E00031C592F36080319D32F08303706031D2B
:100F2E00B02FF00101300A128A119E250A128A1181
:100F3E000A128A113A260A128A1183120313B30077
:100F4E003308F3000030F4000A128A1176250A12D3
:100F5E008A110730831203133706031DC62FF001C3
:100F6E0001300A128A119E250A128A115E30F30090
:100F7E008030F4000A128A1176250A128A11831221
:100F8E000313B60108080F3888000F300805B100AA
:100F9E000F303106031DC92F0130B1003108B507DE
:100FAE00033035020318432F4B2F0A128A112725BF
:100FBE000A128A11BE000A128A1128250A128A11F3
:100FCE00BF000A128A1129250A128A11C0000A12BC
:100FDE008A112A25C100B401B501B601B701B801C5
:100FEE00B901BA01BB01BC01BD0183010A128A110C
:020FFE00182FAA
:08400000FF3FFF3FFF3FFF3FC0
:02400E007A3FF7
:00000001FF
