:100000000A128A11DC2FFF1B0D2883137F18831718
:100010000008840A0319FF0A080000308A00040857
:10002000840A820700346134623463346434653492
:1000300066346734683469346A346B346C346D34D4
:100040006E346F3470347134723473347434753484
:1000500076347734783479347A34413442344334E2
:100060004434453446344734483449344A344B34B4
:100070004C344D344E344F34503451345234533464
:100080005434553456345734583459345A3430343F
:10009000313432343334343435343634373438341C
:1000A000393400342A340734043401340034083439
:1000B0000534023423340934063403340134023461
:1000C00004340834FE34FD34FB347734613469344D
:1000D000743469346E3467342E342E342E34003444
:0C00E000323438343734353433340034D3
:100A900001340034003400340F30F0007008831645
:100AA0008804F830F000700886050800F200091488
:100AB0007208880009150430F100E430F000F00BF2
:100AC0005F2DF10B5F2D000083120313091004301A
:100AD000F100E430F000F00B6B2DF10B6B2D0000FA
:100AE0008312031309140800F2008312031309147C
:100AF0007208880009110430F100E430F000F00BB6
:100B00007F2DF10B7F2D0000831203130910043099
:100B1000F100E430F000F00B8B2DF10B8B2D000079
:100B20008312031309140800F60176087307840082
:100B300074080318740AFF000A128A1103200A12AB
:100B40008A11003A031908007608730784007408B4
:100B50000318740AFF000A128A1103200A128A116C
:100B60000A128A1156250A128A110130F5007508F9
:100B7000F607952DF3008316880189100911831259
:100B8000091473088800700C031C09110318091557
:100B90000430F200E430F100F10BCC2DF20BCC2D3F
:100BA00000008312031309100430F200E430F10056
:100BB000F10BD82DF20BD82D00008312031309146A
:100BC00008002708280403190E2EAB01AB0AA81B46
:100BD000F52D01300310A70DA80DFF3E031DEA2DD2
:100BE0000130FD007D08AB07E72D28082A02031D10
:100BF000FB2D27082902031C032E2708A902280819
:100C0000031CAA03AA0201300310A80CA70CFF3E84
:100C1000031D042E0130AB02031DF52D2A08A80088
:100C20002908A70008000030FC000030FB0000305D
:100C3000FA000030F900701C312E7408F9077508AD
:100C400003110318013E031DFA0776080311031868
:100C5000013E031DFB07770803110318013E031D26
:100C6000FC070130F8000310F40DF50DF60DF70D3B
:100C7000F80B332E01300310F30CF20CF10CF00CD6
:100C8000FF3E031D3B2E7308720471047004031DA4
:100C90001B2E7C08F3007B08F2007A08F10079082B
:100CA000F0000800AF01B0013E3083120313A7002B
:100CB0000030A8000A128A1191260A128A1121080E
:100CC000AA002008A9000A128A11E1250A128A1135
:100CD0002808AE002708AD002D08013E84000A1246
:100CE0008A110D200A128A11AC002F08383E8400A8
:100CF0002C08831380000130AF070318B00A0030BE
:100D0000B0073008803AFF0080307F02031D8A2E32
:100D100005302F02031C542E83120313BD013830FB
:100D200008004108F3004008F2003F08F1003E08C7
:100D3000F0004130F700C630F6004E30F5006D305F
:100D4000F4000A128A1113260A128A117308C100CC
:100D50007208C0007108BF007008BE003930BE07BD
:100D6000303003183130BF07003003180130C0079E
:100D7000003003180130C1073E08A2003F08A3005D
:100D80004008A4004108A5001030A600250DA50CC0
:100D9000A40CA30CA20CA60BC62EFF302205A000AB
:100DA0007F302305A1000800831688018901831282
:100DB000091009111A30F400F830F300F30BDE2E9D
:100DC000F40BDE2E000083120313091438300A12CC
:100DD0008A1174250A128A110730F4007D30F3005D
:100DE000F30BF02EF40BF02E38300A128A11742512
:100DF0000A128A11C730F300FD2EF30BFC2E002FD0
:100E0000012F38300A128A1174250A128A1108300B
:100E10000A128A1174250A128A110F300A128A11D5
:100E200074250A128A1101300A128A1174250A12D5
:100E30008A110C300A128A1174250A128A11803024
:100E40000A128A117425080083168601A0308312C5
:100E5000B10031088B0405308316810006308312FF
:100E600081000A128A11D4260A128A110A128A11E2
:100E70004C250A128A11F00101300A128A11BA2592
:100E80000A128A115330F3008030F4000A128A11DA
:100E900094250A128A11831686010F308800831266
:100EA000B5010608073886003508503E84000A124E
:100EB0008A110D200A128A1106058600B401340831
:100EC0004C3E84000A128A110D200A128A1108056C
:100ED000031D8F2F073083120313B2007C30B10043
:100EE000B10B702FB20B702F000083120313340864
:100EF0004C3E84000A128A110D200A128A1108053C
:100F0000031D8F2F3508B10002300310B10DFF3ED5
:100F1000031D852F34083107B700B601B60A01302A
:100F2000B1003108B40704303402031C5F2F3608C7
:100F30000319D32F08303706031DB42FF0010130F9
:100F40000A128A11BA250A128A110A128A11522625
:100F50000A128A11B3003308F3000030F4000A12B9
:100F60008A1194250A128A1107303706031DC82FEB
:100F7000F00101300A128A11BA250A128A115E3074
:100F8000F3008030F4000A128A1194250A128A11A3
:100F9000B60108080F3888000F300805B1000F307F
:100FA0003106031DC92F0130B1003108B5070330E8
:100FB000350203184B2F512F0A128A1148250A12A5
:100FC0008A11BE000A128A1149250A128A11BF002D
:100FD0000A128A114A250A128A11C0000A128A11BD
:100FE0004B25C100B401B501B601B701B801B90183
:100FF000BA01BB01BC01BD0183010A128A11242F71
:08400000FF3FFF3FFF3FFF3FC0
:02400E007A3FF7
:00000001FF
