:100000000A128A11DA2FFF1B0D2883137F1883171A
:100010000008840A0319FF0A080000308A00040857
:10002000840A820700346134623463346434653492
:1000300066346734683469346A346B346C346D34D4
:100040006E346F3470347134723473347434753484
:1000500076347734783479347A34413442344334E2
:100060004434453446344734483449344A344B34B4
:100070004C344D344E344F34503451345234533464
:100080005434553456345734583459345A3430343F
:10009000313432343334343435343634373438341C
:1000A000393400342A340734043401340034083439
:1000B0000534023423340934063403340134023461
:1000C00004340834FE34FD34FB347734613469344D
:1000D000743469346E3467342E342E342E34003444
:0C00E000323438343734353433340034D3
:1009F00001340034003400340F30F00070088316E6
:100A000003138804F830F000700886050800F2002F
:100A10008312031309147208880009110430F100CD
:100A2000E430F000F00B122DF10B122D00008312B8
:100A3000031309100430F100E430F000F00B1E2D18
:100A4000F10B1E2D00008312031309140800F2009D
:100A50008312031309147208880009150430F10089
:100A6000E430F000F00B322DF10B322D0000831238
:100A7000031309100430F100E430F000F00B3E2DB8
:100A8000F10B3E2D00008312031309140800F3003C
:100A900083160313880189100911831203130914A3
:100AA00073088800700C031C091103180915043021
:100AB000F200E430F100F10B5B2DF20B5B2D000036
:100AC0008312031309100430F200E430F100F10B3B
:100AD000672DF20B672D0000831203130914080021
:100AE000F601872D76087307840074080318740ACA
:100AF000FF000A128A1103200A128A110A128A11AF
:100B000027250A128A110130F5007508F6077608C4
:100B10007307840074080318740A83120313FF0018
:100B20000A128A1103200A128A11003A031D992D14
:100B30009A2D722D08008312031327082804031925
:100B4000A22DA32DD22DAB01AB0AB12D0130031084
:100B5000A70DA80DFF3E031DA72D0130FD007D0848
:100B6000AB07A81FB42DB52DA62D28082A02031DFA
:100B7000BB2D27082902031CBE2DBF2DC52D27081C
:100B8000A9022808031CAA03AA0201300310A80C1A
:100B9000A70CFF3E031DC62D0130AB02031DD12D56
:100BA000D22DB52D2A08A8002908A700080000307A
:100BB000FC000030FB000030FA000030F900701C2F
:100BC000E22DE32DFA2D7408F907750803110318B7
:100BD000013E0319EC2DFA07760803110318013EB4
:100BE0000319F32DFB07770803110318013E0319BE
:100BF000FA2DFC070130F8000310F40DF50DF60D89
:100C0000F70DF80BFC2D01300310F30CF20CF10C76
:100C1000F00CFF3E031D042E73087204710470046F
:100C2000031D132E142EDF2D7C08F3007B08F20029
:100C30007A08F1007908F0000800831203134108D4
:100C4000F3004008F2003F08F1003E08F000413098
:100C5000F700C630F6004E30F5006D30F4000A1291
:100C60008A11D7250A128A11730883120313C1004F
:100C70007208C0007108BF007008BE003930BE079E
:100C8000303003183130BF07003003180130C0077F
:100C9000003003180130C1073E08A2003F08A3003E
:100CA0004008A4004108A5001030A600250DA50CA1
:100CB000A40CA30CA20CA60B562EFF302205A000FC
:100CC0007F302305A100080083120313AF01B00198
:100CD0003E3083120313A7000030A8000A128A11C5
:100CE0001D260A128A11831203132108AA00200864
:100CF000A9000A128A119B250A128A118312031372
:100D00002808AE002708AD002D08013E84000A1215
:100D10008A110D200A128A11AC002F08383E840077
:100D20002C08831380000130AF070318B00A00308D
:100D3000B0073008803AFF0080307F02031DA22EEA
:100D400005302F02031CA52EA62E682E8312031336
:100D5000BD0138300800831603138801890183120E
:100D60000313091009111A30F400F830F300F30BE3
:100D7000B72EF40BB72E000083120313091438307A
:100D80000A128A1107250A128A110730F4007D30F1
:100D9000F300F30BC92EF40BC92E38300A128A1156
:100DA00007250A128A11C730F300D62EF30BD52E71
:100DB000D92EDA2E38300A128A1107250A128A1122
:100DC00008300A128A1107250A128A110F300A12F6
:100DD0008A1107250A128A1101300A128A11072581
:100DE0000A128A110C300A128A1107250A128A1176
:100DF00080300A128A1107250A128A110800831608
:100E000003138601A03083120313B10031088B0451
:100E1000053083160313810006308312031381000B
:100E20000A128A11AB260A128A110A128A11FC24AC
:100E30000A128A11F00101300A128A1147250A129A
:100E40008A115330F3008030F4000A128A117025A1
:100E50000A128A118316031386010F308800831249
:100E60000313B5010608073886003508503E840094
:100E70000A128A110D200A128A1106058600B40191
:100E800034084C3E84000A128A110D200A128A117D
:100E90000805031D4C2F4D2F742F073083120313A9
:100EA000B2007C30B100B10B532FB20B532F0000B6
:100EB0008312031334084C3E84000A128A110D2059
:100EC0000A128A110805031D662F672F742F350833
:100ED000B10002300310B10DFF3E031D6A2F34082C
:100EE0003107B700B601B60A0130B1003108B407C6
:100EF00004303402031C7D2F7E2F402F3608031947
:100F0000822F832FCC2F08303706031D882F892F7F
:100F1000A12FF00101300A128A1147250A128A1105
:100F20000A128A1164260A128A1183120313B3006B
:100F30003308F3000030F4000A128A1170250A12F7
:100F40008A110730831203133706031DA82FA92F18
:100F5000B92FF00101300A128A1147250A128A11AD
:100F60005E30F3008030F4000A128A1170250A12F4
:100F70008A1183120313B60108080F388800C32FA3
:100F800008080F3888000F300805B1000F3031060F
:100F9000031DCB2FCC2FC02F0130B1003108B50776
:100FA00003303502031CD52FD62F322F2A2F0A12D9
:100FB0008A1100280A128A11F8240A128A11BE0026
:100FC0000A128A11F9240A128A11BF000A128A1120
:100FD000FA240A128A11C0000A128A11FB240A128A
:100FE0008A11C100B401B501B601B701B801B90158
:100FF000BA01BB01BC01BD0183010A128A11FF2E97
:08400000FF3FFF3FFF3FFF3FC0
:02400E007A3FF7
:00000001FF
