:060000000A128A1110280B
:10000800FE00030EF1000408F2000A08F3007F085E
:10001800F4000A128A11362B0A128A1113280A12BE
:100028008A11B7260A128A11DF000A128A11B82625
:100038000A128A11E0000A128A11B9260A128A11D4
:10004800E1000A128A11BA260A128A11E2000A127B
:100058008A11BB260A128A11E3000A128A11BC26E9
:100068000A128A11E4008313A0308400D2300A12E5
:100078008A11AF260A128A114C3084005F300A12A6
:100088008A11AF260A128A11F501F601F701F80163
:1000980083010A128A115028831603138601A0309F
:1000A80083120313C90049088B0405308316031310
:1000B800810006308312031381000030B200013042
:1000C800B100C230B0000030AF000A128A111F25FB
:1000D8000A128A110A128A11A3230A128A110A1211
:1000E8008A1190260A128A1183120313A001013083
:1000F8000A128A11CE250A128A1153308312031369
:10010800A3008030A4000A128A11A1250A128A11BC
:100118008316031386010F308800831203135108D6
:10012800031D972898285729CF0106080738860005
:100138004F08503E84000A128A114F220A128A116F
:1001480006058600CE014E084C3E84000A128A112C
:100158004F220A128A110805031DB328B428DB2888
:10016800213083120313CA007530C900C90BBA289D
:10017800CA0BBA28BF28831203134E084C3E8400CA
:100188000A128A114F220A128A110805031DCD2866
:10019800CE28DB284F08C90002300310C90DFF3EE6
:1001A800031DD1284E084907D400D301D30A0130D2
:1001B800C9004908CE0704304E02031CE428E5288C
:1001C800A72853080319E928EA284D2908305406B6
:1001D800031DEF28F0281729A00101300A128A11FF
:1001E800CE250A128A110A128A11FF230A128A11CD
:1001F80083120313CB004B08A3000030A4000A129B
:100208008A11A1250A128A11831203134B08A2002E
:100218000030A3000A128A11FB250A128A118312E0
:100228000313D101D10A07305406031D1C291D29C7
:100238003A29A00101300A128A11CE250A128A1120
:100248006E3083120313A3008030A4000A128A11AF
:10025800A1250A128A115E3083120313A20080308E
:10026800A3000A128A11FB250A128A1183120313AA
:10027800D30108080F388800442908080F38880077
:100288000F300805C9000F304906031D4C294D29B8
:1002980041290130C9004908CF0703304F02031C28
:1002A800562957299928510803195B295C298C2854
:1002B80052080319602961296429D101D2018C28C7
:1002C8006408C4006308C3000A30C5000030C600D3
:1002D8005D300A128A1128260A128A118312031322
:1002E800A001C0300A128A11CE250A128A115D3087
:1002F80083120313A3000030A4000A128A11A12557
:100308000A128A1183120313500803198C298D29A4
:10031800A429A00101300A128A11CE250A128A11D5
:10032800663083120313A3008030A4000A128A11D6
:10033800A1250A128A1183120313D001D1018C2836
:100348008C280A128A11102883120313AA01A31FEA
:10035800AE29AF29BC29A009A109A209A309A00AAD
:100368000319A10A0319A20A0319A30AAA01AA0ACE
:10037800A71FBF29C029CF29A409A509A609A7092C
:10038800A40A0319A50A0319A60A0319A70A013022
:10039800A8002808AA060030AE000030AD000030E2
:1003A800AC000030AB002308220421042004031908
:1003B800DE29DF292C2AA901A90AEF290130A80082
:1003C8000310A00DA10DA20DA30DA80BE429013067
:1003D800A8002808A907A31FF229F329E229013058
:1003E800A8000310AB0DAC0DAD0DAE0DA80BF52993
:1003F80023082702031D0A2A22082602031D0A2AA7
:1004080021082502031D0A2A20082402031C0D2A9C
:100418000E2A1D2A2008A4022108031C210FA50268
:100428002208031C220FA6022308031C230FA7027D
:100438002B1401300310A30CA20CA10CA00CFF3E3E
:10044800031D1E2A0130A902031D2B2A2C2AF32979
:100458002A080319302A312A3C2AAB09AC09AD090C
:10046800AE09AB0A0319AC0A0319AD0A0319AE0A9F
:100478002E08A3002D08A2002C08A1002B08A0001C
:100488000800FF1B4F2A83137F1883170008840A6C
:100498000319FF0A080002308A000408840A820748
:1004A80000346134623463346434653466346734E8
:1004B800683469346A346B346C346D346E346F3438
:1004C80070347134723473347434753476347734E8
:1004D800783479347A3441344234433444344534BA
:1004E80046344734483449344A344B344C344D3418
:1004F8004E344F34503451345234533454345534C8
:1005080056345734583459345A34303431343234F8
:1005180033343434353436343734383439340034B9
:100528002A340734043401340034083405340234DE
:1005380023340934063403340134023404340834CF
:10054800FE34FD34FB3477346134693474346934EF
:100558006E3467342E342E342E340034323438342A
:100568003734353433340D340A3400347734613455
:100578006934743469346E3467340034323438344E
:10058800373435343334003483120313C2003B0844
:10059800C0003A08BF003D08A1003C08A000400880
:1005A800A3003F08A2000A128A11D9240A128A114C
:1005B800831203132108C0002008BF000130BE00C9
:1005C8003E08C2073F084004031DEB2AEC2ACF2A45
:1005D80042088400831380010130C2023D08B5003F
:1005E8003C08B4003B08B7003A08B6000A128A1162
:1005F80065250A128A11831203133408C1003D08C5
:10060800A1003C08A0003B08A3003A08A2000A1277
:100618008A11D9240A128A11831203132108BB00F4
:100628002008BA000A304102031C1B2B1C2B202B6C
:100638000730BE003E08C1073030BE003E08C10783
:10064800420884004108831380000130C2023A083E
:100658003B04031D302B312BF22A0130BE003E082B
:10066800C2070800831203138C1E3B2B3C2B4F2B15
:100678007708A03E84001A08831380000130F7072A
:100688000318F80A0030F8077708A03E84008001B4
:10069800D201D20A8C120B1D522B532B982BFB30F4
:1006A800F00070088B0506308100510803195D2B96
:1006B8005E2B982B0130F5070318F60A0030F60771
:1006C8000130CC070318CD0A0030CD074D08803A19
:1006D800FF0080307F02031D732BFB304C02031C8C
:1006E800762B772B812BFF3083120313E307031834
:1006F800E40AFF30E407CC01CD017608803AFF0018
:10070800BA307F02031D8A2B98307502031C8D2B8B
:100718008E2B982B83120313D001D00AF501F60112
:100728003C30E3000030E4007408FF0073088A00DE
:1007380072088400710E8300FE0E7E0E0900831677
:100748000313880189018312031389100911823068
:1007580083120313A400DD30A300A30BB12BA40B59
:10076800B12B83120313891438300A128A116E26AA
:100778000A128A11213083120313A4007530A300D2
:10078800A30BC42BA40BC42BC92B38300A128A1113
:100798006E260A128A11073083120313A4007C30D4
:1007A800A300A30BD52BA40BD52B000038300A12BD
:1007B8008A116E260A128A1108300A128A116E26C8
:1007C8000A128A110F300A128A116E260A128A1129
:1007D80001300A128A116E260A128A110C300A1286
:1007E8008A116E260A128A1180300A128A116E2620
:1007F8000A128A11080083120313BD01BE013E309C
:1008080083120313B4000030B5000A128A1192242F
:100818000A128A11831203132E08B7002D08B60096
:100828000A128A1165250A128A11831203133508E0
:10083800BC003408BB003B08013E84000A128A1140
:100848004F220A128A11BA003D08553E84003A0820
:10085800831380000130BD070318BE0A0030BE07AD
:100868003E08803AFF0080307F02031D3D2C053092
:100878003D02031C402C412C032C0D308312031322
:10088800DA000A30DB00DC01553008000030831242
:100898000313AC000030AB000030AA000030A90000
:1008A800201C572C582C6F2C2408A9072508031145
:1008B8000318013E0319612CAA072608031103181F
:1008C800013E0319682CAB07270803110318013EE2
:1008D80003196F2CAC070130A8000310A40DA50D57
:1008E800A60DA70DA80B712C01300310A30CA20CA8
:1008F800A10CA00CFF3E031D792C2308220421041F
:100908002004031D882C892C542C2C08A3002B08A8
:10091800A2002A08A1002908A000080083120313D6
:100928006208A3006108A2006008A1005F08A00097
:100938004130A700C630A6004E30A5006D30A40097
:100948000A128A114A240A128A11831203132308ED
:10095800E2002208E1002108E0002008DF00393029
:10096800DF07303003183130E0070030031801305A
:10097800E107003003180130E2075F08AF006008A4
:10098800B0006108B1006208B2001030B300320D47
:10099800B20CB10CB00CAF0CB30BCB2CFF302F0545
:1009A800AD007F303005AE00080083120313A601A6
:1009B800A701200821040319E22CE32C1A2DA50114
:1009C800A50AF12C01300310A00DA10DFF3E031D57
:1009D800E72C0130A4002408A507A11FF42CF52C4E
:1009E800E62C01300310A60DA70DFF3E031DF62CC3
:1009F80021082302031D022D20082202031C052DB5
:100A0800062D0D2D2008A2022108031CA303A30212
:100A1800261401300310A10CA00CFF3E031D0E2D5F
:100A28000130A502031D192D1A2DF52C2708A10048
:100A38002608A0000800BF3083120313B300330850
:100A48008316031387058717243083120313B30013
:100A58003308831603139804831203139817181680
:100A68002F08B3003008B4003108B5003208B600CA
:100A780006300310B30DB40DB50DB60DFF3E031DC2
:100A88003D2D3608A3003508A2003408A10033081C
:100A9800A0000130A7003130A6002D30A50000309D
:100AA800A4000A128A11A8210A128A1183120313B8
:100AB8002008FF3E8316031399008B170B178C161B
:100AC8000800831203133408350403196C2D6D2DA7
:100AD8009C2DB901B90A7B2D01300310B40DB50D59
:100AE800FF3E031D712D0130B8003808B907B51F46
:100AF8007E2D7F2D702D35083702031D852D340876
:100B08003602031C882D892D8F2D3408B60235082E
:100B1800031CB703B70201300310B50CB40CFF3E39
:100B2800031D902D0130B902031D9B2D9C2D7F2D97
:100B38003708B5003608B400080083120313A6016D
:100B4800BC2D26082307840024080318240AFF0064
:100B58000A128A1145220A128A110A128A114C268F
:100B68000A128A11013083120313A5002508A6076B
:100B780026082307840024080318240AFF000A1201
:100B88008A1145220A128A11003A031DCC2DCD2D57
:100B9800A52D080083120313A300831603138801ED
:100BA8008910091183120313891423088800200C63
:100BB800031C091103180915143083120313A2002A
:100BC8007930A100A10BE62DA20BE62D83120313A9
:100BD8008910143083120313A2007930A100A10BED
:100BE800F32DA20BF32D831203138914080083122B
:100BF8000313A501162E25082207840023080318CD
:100C0800230AFF000A128A1145220A128A110A12BF
:100C18008A11A1260A128A11013083120313A40033
:100C28002408A50725082207840023080318230A97
:100C3800FF000A128A1145220A128A11003A031D7E
:100C4800262E272EFF2D080083120313C800C41F69
:100C58002E2E2F2E3D2E480884002D308313800021
:100C68000130C7004708C807C309C409C30A0319E4
:100C7800C40A4408BB004308BA004608BD0045083A
:100C8800BC0048080A128A11C8220A128A110800F0
:100C980083120313A200891422088800091514304E
:100CA80083120313A1007930A000A00B592EA10BC9
:100CB800592E831203138910143083120313A100D1
:100CC8007930A000A00B662EA10B662E83120313A9
:100CD8008914080083120313A200891422088800CB
:100CE8000911143083120313A1007930A000A00B5E
:100CF8007B2EA10B7B2E83120313891014308312D1
:100D08000313A1007930A000A00B882EA10B882E18
:100D180083120313891408000F3083120313A000F1
:100D28002008831603138804F83083120313A000E5
:100D38002008831603138605080083120313A100F5
:100D48000C1EA72EA82EA42EEF30A00020088C057C
:100D580021089900080064008001840A0406031928
:100D680000340406B02E01340034003400343C341E
:020D7800003445
:08400000FF3FFF3FFF3FFF3FC0
:02400E00723FFF
:00000001FF
