:100000000A128A11DA2FFF1B0D2883137F1883171A
:100010000008840A0319FF0A080000308A00040857
:10002000840A820700346134623463346434653492
:1000300066346734683469346A346B346C346D34D4
:100040006E346F3470347134723473347434753484
:1000500076347734783479347A34413442344334E2
:100060004434453446344734483449344A344B34B4
:100070004C344D344E344F34503451345234533464
:100080005434553456345734583459345A3430343F
:10009000313432343334343435343634373438341C
:1000A000393400342A340734043401340034083439
:1000B0000534023423340934063403340134023461
:1000C00004340834FE34FD34FB347734613469344D
:1000D000743469346E3467342E342E342E34003444
:0C00E000323438343734353433340034D3
:1009EC0001340034003400340F30F00070088316EA
:1009FC0003138804F830F000700886050800F20034
:100A0C008312031389147208880009111430F10041
:100A1C007930F000F00B102DF10B102D152D8312E9
:100A2C00031389101430F1007930F000F00B1C2DF9
:100A3C00F10B1C2D212D8312031389140800F200D5
:100A4C008312031389147208880009151430F100FD
:100A5C007930F000F00B302DF10B302D352D831249
:100A6C00031389101430F1007930F000F00B3C2D99
:100A7C00F10B3C2D412D8312031389140800F30054
:100A8C008316031388018910091183120313891427
:100A9C0073088800700C031C091103180915143015
:100AAC00F2007930F100F10B592DF20B592D5E2D1E
:100ABC008312031389101430F2007930F100F10B1A
:100ACC00652DF20B652D6A2D831203138914080012
:100ADC00F601852D76087307840074080318740AD0
:100AEC00FF000A128A1103200A128A110A128A11B3
:100AFC0025250A128A110130F5007508F6077608CB
:100B0C007307840074080318740A83120313FF001C
:100B1C000A128A1103200A128A11003A031D972D1A
:100B2C00982D702D0800831203132708280403192D
:100B3C00A02DA12DD02DAB01AB0AAF2D0130031090
:100B4C00A70DA80DFF3E031DA52D0130FD007D084E
:100B5C00AB07A81FB22DB32DA42D28082A02031D04
:100B6C00B92D27082902031CBC2DBD2DC32D270828
:100B7C00A9022808031CAA03AA0201300310A80C1E
:100B8C00A70CFF3E031DC42D0130AB02031DCF2D5E
:100B9C00D02DB32D2A08A8002908A7000800003082
:100BAC00FC000030FB000030FA000030F900701C33
:100BBC00E02DE12DF82D7408F907750803110318C1
:100BCC00013E0319EA2DFA07760803110318013EBA
:100BDC000319F12DFB07770803110318013E0319C4
:100BEC00F82DFC070130F8000310F40DF50DF60D8F
:100BFC00F70DF80BFA2D01300310F30CF20CF10C7D
:100C0C00F00CFF3E031D022E730872047104700475
:100C1C00031D112E122EDD2D7C08F3007B08F20033
:100C2C007A08F1007908F0000800831203134108D8
:100C3C00F3004008F2003F08F1003E08F00041309C
:100C4C00F700C630F6004E30F5006D30F4000A1295
:100C5C008A11D5250A128A11730883120313C10055
:100C6C007208C0007108BF007008BE003930BE07A2
:100C7C00303003183130BF07003003180130C00783
:100C8C00003003180130C1073E08A2003F08A30042
:100C9C004008A4004108A5001030A600250DA50CA5
:100CAC00A40CA30CA20CA60B542EFF302205A00002
:100CBC007F302305A100080083120313AF01B0019C
:100CCC003E3083120313A7000030A8000A128A11C9
:100CDC001B260A128A11831203132108AA0020086A
:100CEC00A9000A128A1199250A128A118312031378
:100CFC002808AE002708AD002D08013E84000A121A
:100D0C008A110D200A128A11AC002F08383E84007B
:100D1C002C08831380000130AF070318B00A003091
:100D2C00B0073008803AFF0080307F02031DA02EF0
:100D3C0005302F02031CA32EA42E662E8312031340
:100D4C00BD01383008008316031388018901831212
:100D5C000313891009118230F400DD30F300F30B1A
:100D6C00B52EF40BB52EBA2E83120313891438301A
:100D7C000A128A1105250A128A112130F4007630E4
:100D8C00F300F30BC72EF40BC72E000038300A12F9
:100D9C008A1105250A128A110730F4007D30F30000
:100DAC00F30BD62EF40BD62E38300A128A110525E9
:100DBC000A128A1108300A128A1105250A128A11A0
:100DCC000F300A128A1105250A128A1101300A12F3
:100DDC008A1105250A128A110C300A128A1105256E
:100DEC000A128A1180300A128A1105250A128A11F8
:100DFC000800831603138601A03083120313B1007D
:100E0C0031088B04053083160313810006308312DE
:100E1C00031381000A128A11A9260A128A110A12D6
:100E2C008A11FA240A128A11F00101300A128A116D
:100E3C0045250A128A115330F3008030F4000A124F
:100E4C008A116E250A128A118316031386010F303C
:100E5C00880083120313B50106080738860035088D
:100E6C00503E84000A128A110D200A128A110605BE
:100E7C008600B40134084C3E84000A128A110D20FD
:100E8C000A128A110805031D4C2F4D2F742F213087
:100E9C0083120313B2007530B100B10B532FB20B98
:100EAC00532F582F8312031334084C3E84000A121C
:100EBC008A110D200A128A110805031D662F672F4F
:100ECC00742F3508B10002300310B10DFF3E031D25
:100EDC006A2F34083107B700B601B60A0130B100E9
:100EEC003108B40704303402031C7D2F7E2F402FB1
:100EFC0036080319822F832FCC2F08303706031D99
:100F0C00882F892FA12FF00101300A128A11452553
:100F1C000A128A110A128A1162260A128A11831283
:100F2C000313B3003308F3000030F4000A128A11E3
:100F3C006E250A128A110730831203133706031D1C
:100F4C00A82FA92FB92FF00101300A128A114525BB
:100F5C000A128A115E30F3008030F4000A128A11F2
:100F6C006E250A128A1183120313B60108080F3872
:100F7C008800C32F08080F3888000F300805B1000F
:100F8C000F303106031DCB2FCC2FC02F0130B100F9
:100F9C003108B50703303502031CD52FD62F322F5D
:100FAC002A2F0A128A1100280A128A11F6240A1210
:100FBC008A11BE000A128A11F7240A128A11BF0084
:100FCC000A128A11F8240A128A11C0000A128A1114
:100FDC00F9240A128A11C100B401B501B601B70196
:100FEC00B801B901BA01BB01BC01BD0183010A12F0
:040FFC008A11FF2E29
:08400000FF3FFF3FFF3FFF3FC0
:02400E00F23F7F
:00000001FF
