:060000000A128A1110280B
:10000800FE00030EF1000408F2000A08F3007F085E
:10001800F4000A128A111B2B0A128A1113280A12D9
:100028008A118D260A128A11DD000A128A118E267B
:100038000A128A11DE000A128A118F260A128A1100
:10004800DF000A128A1190260A128A11E0000A12A9
:100058008A1191260A128A11E1000A128A1192263F
:100068000A128A11E2008313A0308400D2300A12E7
:100078008A1185260A128A114C3084005D300A12D2
:100088008A1185260A128A11F501F601F701F8018D
:1000980083010A128A115028831603138601A0309F
:1000A80083120313C90049088B0405308316031310
:1000B800810006308312031381000030B200013042
:1000C800B100C230B0000030AF000A128A1100251A
:1000D8000A128A110A128A1188230A128A110A122C
:1000E8008A1166260A128A1183120313A0010130AD
:1000F8000A128A11AF250A128A1153308312031388
:10010800A3008030A4000A128A1182250A128A11DB
:100118008316031386010F30880083120313CF015F
:100128000608073886004F08503E84000A128A11D4
:100138003C220A128A1106058600CE014E084C3E62
:1001480084000A128A113C220A128A110805031D2A
:10015800AE28AF28D628213083120313CA00753081
:10016800C900C90BB528CA0BB528BA2883120313CE
:100178004E084C3E84000A128A113C220A128A1147
:100188000805031DC828C928D6284F08C900023009
:100198000310C90DFF3E031DCC284E084907D400A3
:1001A800D301D30A0130C9004908CE0704304E02F2
:1001B800031CDF28E028A22853080319E428E528AF
:1001C8003A2908305406031DEA28EB280F29A00114
:1001D80001300A128A11AF250A128A110A128A11ED
:1001E8002C240A128A1183120313CB004B08A30094
:1001F8000030A4000A128A1182250A128A11831279
:1002080003134B080A128A1144260A128A11831210
:100218000313D101D10A07305406031D14291529E7
:100228002729A00101300A128A11AF250A128A1162
:10023800663083120313A3008030A4000A128A11C7
:1002480082250A128A1183120313D30108080F3872
:100258008800312908080F3888000F300805C900C0
:100268000F304906031D39293A292E290130C900C2
:100278004908CF0703304F02031C43294429942817
:1002880051080319482949298C28520803194D296E
:100298004E295129D101D2018C286208C400610875
:1002A800C3000A30C5000030C6005B300A128A114C
:1002B800DC250A128A1183120313A001C0300A1226
:1002C8008A11AF250A128A115B3083120313A30027
:1002D8000030A4000A128A1182250A128A11831298
:1002E80003135008031979297A299129A0010130AB
:1002F8000A128A11AF250A128A115E30831203137B
:10030800A3008030A4000A128A1182250A128A11D9
:1003180083120313D001D1018C288C280A128A1168
:10032800102883120313AA01A31F9B299C29A9291A
:10033800A009A109A209A309A00A0319A10A03197E
:10034800A20A0319A30AAA01AA0AA71FAC29AD2960
:10035800BC29A409A509A609A709A40A0319A50A7D
:100368000319A60A0319A70A0130A8002808AA0633
:100378000030AE000030AD000030AC000030AB0003
:1003880023082204210420040319CB29CC29192A83
:10039800A901A90ADC290130A8000310A00DA10DAC
:1003A800A20DA30DA80BD1290130A8002808A90780
:1003B800A31FDF29E029CF290130A8000310AB0DC6
:1003C800AC0DAD0DAE0DA80BE22923082702031DC5
:1003D800F72922082602031DF72921082502031DF3
:1003E800F72920082402031CFA29FB290A2A2008D5
:1003F800A4022108031C210FA5022208031C220FB6
:10040800A6022308031C230FA7022B140130031094
:10041800A30CA20CA10CA00CFF3E031D0B2A01305B
:10042800A902031D182A192AE0292A0803191D2AD6
:100438001E2A292AAB09AC09AD09AE09AB0A031972
:10044800AC0A0319AD0A0319AE0A2E08A3002D0839
:10045800A2002C08A1002B08A0000800FF1B3C2AC2
:1004680083137F1883170008840A0319FF0A0800FA
:1004780002308A000408840A820700346134623436
:1004880063346434653466346734683469346A3490
:100498006B346C346D346E346F3470347134723440
:1004A80073347434753476347734783479347A34F0
:1004B8004134423443344434453446344734483470
:1004C80049344A344B344C344D344E344F34503420
:1004D80051345234533454345534563457345834D0
:1004E80059345A3430343134323433343434353482
:1004F800363437343834393400342A340734043441
:100508000134003408340534023423340934063401
:1005180003340134023404340834FE34FD34FB342B
:10052800773461346934743469346E3467342E3402
:100538002E342E3400347734613469347434693499
:100548006E34673400343234383437343534333425
:10055800003483120313C2003B08C0003A08BF00EE
:100568003D08A1003C08A0004008A3003F08A200E5
:100578000A128A11BA240A128A1183120313210853
:10058800C0002008BF000130BE003E08C2073F0877
:100598004004031DD02AD12AB42A420884008313B8
:1005A80080010130C2023D08B5003C08B4003B0898
:1005B800B7003A08B6000A128A1146250A128A11AB
:1005C800831203133408C1003D08A1003C08A000B1
:1005D8003B08A3003A08A2000A128A11BA240A1298
:1005E8008A11831203132108BB002008BA000A30BD
:1005F8004102031C002B012B052B0730BE003E08CF
:10060800C1073030BE003E08C107420884004108D7
:10061800831380000130C2023A083B04031D152BE6
:10062800162BD72A0130BE003E08C20708008312E5
:1006380003138C1E202B212B342B7708A03E84001B
:100648001A08831380000130F7070318F80A0030EE
:10065800F8077708A03E84008001D201D20A8C12E4
:100668000B1D372B382B7D2BFB30F00070088B05CA
:100678000630810051080319422B432B7D2B013092
:10068800F5070318F60A0030F6070130CC070318FF
:10069800CD0A0030CD074D08803AFF0080307F0238
:1006A800031D582BFB304C02031C5B2B5C2B662B69
:1006B800FF3083120313E1070318E20AFF30E20751
:1006C800CC01CD017608803AFF00BA307F02031DC5
:1006D8006F2B98307502031C722B732B7D2B8312A2
:1006E8000313D001D00AF501F6013C30E1000030D7
:1006F800E2007408FF0073088A0072088400710E13
:100708008300FE0E7E0E09008316031388018901FB
:100718008312031389100911823083120313A40072
:10072800DD30A300A30B962BA40B962B8312031387
:10073800891438300A128A1122260A128A112130A5
:1007480083120313A4007530A300A30BA92BA40BD9
:10075800A92BAE2B38300A128A1122260A128A11C6
:10076800073083120313A4007C30A300A30BBA2B19
:10077800A40BBA2B000038300A128A1122260A125A
:100788008A1108300A128A1122260A128A110F3099
:100798000A128A1122260A128A1101300A128A11B3
:1007A80022260A128A110C300A128A1122260A12EB
:1007B8008A1180300A128A1122260A128A11080028
:1007C800003083120313AC000030AB000030AA00E5
:1007D8000030A900201CF12BF22B092C2408A907B2
:1007E800250803110318013E0319FB2BAA07260845
:1007F80003110318013E0319022CAB072708031144
:100808000318013E0319092CAC070130A800031096
:10081800A40DA50DA60DA70DA80B0B2C01300310D8
:10082800A30CA20CA10CA00CFF3E031D132C230843
:10083800220421042004031D222C232CEE2B2C0837
:10084800A3002B08A2002A08A1002908A00008007C
:1008580083120313BD01BE013E3083120313B4009B
:100868000030B5000A128A1173240A128A11831201
:1008780003132E08B7002D08B6000A128A11462560
:100888000A128A11831203133508BC003408BB000E
:100898003B08013E84000A128A113C220A128A117E
:1008A800BA003D08553E84003A08831380000130A1
:1008B800BD070318BE0A0030BE073E08803AFF0095
:1008C80080307F02031D6A2C05303D02031C6D2C0D
:1008D8006E2C302C83120313DA0155300800831272
:1008E80003136008A3005F08A2005E08A1005D086A
:1008F800A0004130A700C630A6004E30A5006D30DC
:10090800A4000A128A11E4230A128A11831203131B
:100918002308E0002208DF002108DE002008DD00AF
:100928003930DD07303003183130DE070030031866
:100938000130DF07003003180130E0075D08AF0021
:100948005E08B0005F08B1006008B2001030B30064
:10095800320DB20CB10CB00CAF0CB30BAC2CFF3099
:100968002F05AD007F303005AE0008008312031359
:10097800A601A701200821040319C32CC42CFB2CB1
:10098800A501A50AD22C01300310A00DA10DFF3E30
:10099800031DC82C0130A4002408A507A11FD52CCD
:1009A800D62CC72C01300310A60DA70DFF3E031D42
:1009B800D72C21082302031DE32C20082202031C44
:1009C800E62CE72CEE2C2008A2022108031CA30326
:1009D800A302261401300310A10CA00CFF3E031D36
:1009E800EF2C0130A502031DFA2CFB2CD62C27086E
:1009F800A1002608A0000800BF3083120313B3002B
:100A080033088316031387058717243083120313CB
:100A1800B30033088316031398048312031398173B
:100A280018162F08B3003008B4003108B500320892
:100A3800B60006300310B30DB40DB50DB60DFF3E6C
:100A4800031D1E2D3608A3003508A2003408A10096
:100A58003308A0000130A7003130A6002D30A500D2
:100A68000030A4000A128A1195210A128A118312F1
:100A780003132008FF3E8316031399008B170B17E7
:100A88008C160800831203133408350403194D2DFE
:100A98004E2D7D2DB901B90A5C2D01300310B40D1E
:100AA800B50DFF3E031D522D0130B8003808B907B7
:100AB800B51F5F2D602D512D35083702031D662D9A
:100AC80034083602031C692D6A2D702D3408B602CD
:100AD8003508031CB703B70201300310B50CB40C7A
:100AE800FF3E031D712D0130B902031D7C2D7D2DA4
:100AF800602D3708B5003608B400080083120313C8
:100B0800A6019D2D26082307840024080318240A1B
:100B1800FF000A128A1132220A128A110A128A1155
:100B280000260A128A11013083120313A500250832
:100B3800A60726082307840024080318240AFF00B0
:100B48000A128A1132220A128A11003A031DAD2DA7
:100B5800AE2D862D080083120313A30083160313FA
:100B68008801891009118312031389142308880046
:100B7800200C031C091103180915143083120313E0
:100B8800A2007930A100A10BC72DA20BC72D83129B
:100B980003138910143083120313A2007930A100C3
:100BA800A10BD42DA20BD42D831203138914080092
:100BB80083120313C800C41FE22DE32DF12D48084A
:100BC80084002D30831380000130C7004708C80710
:100BD800C309C409C30A0319C40A4408BB0043086B
:100BE800BA004608BD004508BC0048080A128A1128
:100BF800AD220A128A11080083120313A200891475
:100C0800220888000915143083120313A1007930D3
:100C1800A000A00B0D2EA10B0D2E8312031389101B
:100C2800143083120313A1007930A000A00B1A2EF0
:100C3800A10B1A2E831203138914080083120313BD
:100C4800A2008914220888000911143083120313A2
:100C5800A1007930A000A00B2F2EA10B2F2E8312FC
:100C680003138910143083120313A1007930A000F4
:100C7800A00B3C2EA10B3C2E8312031389140800F1
:100C880083120313A300A4015A2E24082307A200E9
:100C98002208840000080A128A1177260A128A118B
:100CA800013083120313A2002208A4072408230793
:100CB800A2002208840083130008031D642E652EF9
:100CC800492E08000F3083120313A0002008831652
:100CD80003138804F83083120313A0002008831636
:100CE80003138605080083120313A1000C1E7D2E32
:100CF8007E2E7A2EEF30A00020088C05210899005E
:100D0800080064008001840A0406031900340406FC
:0E0D1800862E01340034003400343C340034A4
:08400000FF3FFF3FFF3FFF3FC0
:02400E00723FFF
:00000001FF
