:060000000A128A1110280B
:10000800FE00030EF6000408F7000A08F8007F084F
:10001800F9000A128A11EB2B0A128A1113280A1204
:100028008A1594270A128A11E9000A128A15952757
:100038000A128A11EA000A128A1596270A128A11E8
:10004800EB000A128A1597270A128A11EC000A1285
:100058008A1598270A128A11ED000A128A1599271B
:100068000A128A11EE00831790308400C2300A12F7
:100078008A159A270A128A118313A0308400D23075
:100088000A128A159A270A128A114930840069309F
:100098000A128A159A270A128A11F001F101F2014F
:1000A800F301F40183010A128A115A2883160313F3
:1000B80086010F308800A030D20052088B0405302A
:1000C800810006308312031381000030B200013032
:1000D800B100C230B0000030AF000A128A11A32666
:1000E8000A128A110A128A11C8240A128A110A12DB
:1000F8008A15AB270A128A1183120313A001013053
:100108000A128A1152270A128A115F3083120313C6
:10011800A3008030A4000A128A1125270A128A1126
:10012800831203135208031D9A289B28CF280A120A
:100138008A11EF210A128A11233A031DA428A5283F
:10014800CF2883120313A00101300A128A11522703
:100158000A128A110A128A1124250A128A11831690
:100168000313D500550883120313A3000030A4001D
:100178000A128A1125270A128A11831603135508B1
:100188000A128A15BC270A128A1183120313D20194
:10019800D20AD001D00A8312031352080319D528B2
:1001A800D628942853080319DA28DB28AB290A1221
:1001B8008A11EF210A128A1183160313D6002130FF
:1001C80056060319E828E928ED2856088312031370
:1001D800D40083125003031DF228F3281129A0012B
:1001E80001300A128A1152270A128A1153308312D7
:1001F8000313A3008030A4000A128A1125270A12CB
:100208008A1183120313A001C0300A128A115227DF
:100218000A128A1183120313D0019030A000A03073
:100228000A128A117D250A128A11213083160313B6
:100238005606031920292129A62983120313A00190
:10024800A00A8316031356080A128A1152270A12A3
:100258008A112330831603135606031D34293529C2
:100268009629831203134F08553E84008313800197
:10027800A00101300A128A1152270A128A119030FD
:1002880083120313A00055300A128A117F270A121D
:100298008A118312031320082104031D54295529A8
:1002A8006D296A30A3008030A4000A128A1125271C
:1002B8000A128A117F3083160313D400D430D30076
:1002C8003130D200D20B6629D30B6629D40B6629AC
:1002D80077296E30A3008030A4000A128A112527DE
:1002E8000A128A115E2983120313D301CF01C901AF
:1002F800CA013C30ED000030EE00D101D10AA00166
:1003080001300A128A1152270A128A115F308312A9
:100318000313A3008030A4000A128A1125270A12A9
:100328008A11A629831203134F08553E84008316A9
:1003380003135608831380000130D2005208831239
:100348000313CF0783120313CD01CE0194286E083F
:10035800C4006D08C3000A30C5000030C60067300D
:100368000A128A11AA270A128A1183120313A001FA
:10037800C0300A128A1152270A128A116730831272
:100388000313A3000030A4000A128A1125270A12B9
:100398008A118312031351080319D329D429EB298D
:1003A800A00101300A128A1152270A128A115F30FD
:1003B80083120313A3008030A4000A128A11252790
:1003C8000A128A1183120313D101D20194289428A6
:1003D8000A128A1110288316031386010F30880029
:1003E800213083120313A300F101060807388600A1
:1003F8007108503E84000A128A1174230A128A1165
:1004080006058600F00170084C3E84000A128A1125
:1004180074230A128A110805031D132A142A3B2A79
:10042800213083120313A1007530A000A00B1A2AF3
:10043800A10B1A2A1F2A70084C3E84000A128A113E
:1004480074230A128A11831203130805031D2D2A27
:100458002E2A3B2A7108A00002300310A00DFF3E8F
:10046800031D312A70082007F400F301F30A013054
:10047800A0002008F00704307002031C442A452A13
:10048800072A73080319492A4A2ABF2A722A2A30D6
:10049800A300A02A3730A300A02A3430A300A02A42
:1004A8003130A300A02A3030A300A02A3830A3009E
:1004B800A02A3530A300A02A3230A300A02A233076
:1004C800A300A02A3930A300A02A3630A300A02A0E
:1004D8003330A300A02A2130A300A02A7408A0006A
:1004E800A1012108003A03197A2A6F2A2008003A44
:1004F80003194B2A013A03194E2A033A0319512AC0
:10050800013A0319542A073A0319572A013A0319D9
:100518005A2A033A03195D2A013A0319602A0F3A45
:100528000319632A013A0319662A033A0319692A47
:10053800013A03196C2A6F2AF30108080F3888005A
:10054800A82A08080F3888000F300805A0000F30C7
:100558002006031DB02AB12AA52A063083120313E8
:10056800A2001330A100AD30A000A00BB92AA10B46
:10057800B92AA20BB92A013083120313A00020085C
:10058800F10703307102031CCA2ACB2AF929230870
:10059800080083120313AA01A31FD32AD42AE12A2D
:1005A800A009A109A209A309A00A0319A10A03190C
:1005B800A20A0319A30AAA01AA0AA71FE42AE52A7C
:1005C800F42AA409A509A609A709A40A0319A50AD2
:1005D8000319A60A0319A70A0130A8002808AA06C1
:1005E8000030AE000030AD000030AC000030AB0091
:1005F80023082204210420040319032B042B512B64
:10060800A901A90A142B0130A8000310A00DA10DFF
:10061800A20DA30DA80B092B0130A8002808A907D3
:10062800A31F172B182B072B0130A8000310AB0DA5
:10063800AC0DAD0DAE0DA80B1A2B23082702031D18
:100648002F2B22082602031D2F2B21082502031D0C
:100658002F2B20082402031C322B332B422B20087B
:10066800A4022108031C210FA5022208031C220F43
:10067800A6022308031C230FA7022B140130031022
:10068800A30CA20CA10CA00CFF3E031D432B0130B0
:10069800A902031D502B512B182B2A080319552B7F
:1006A800562B612BAB09AC09AD09AE09AB0A03198E
:1006B800AC0A0319AD0A0319AE0A2E08A3002D08C7
:1006C800A2002C08A1002B08A0000800FF1B742B17
:1006D80083137F1883170008840A0319FF0A080088
:1006E80003308A000408840A8207003461346234C3
:1006F80063346434653466346734683469346A341E
:100708006B346C346D346E346F34703471347234CD
:1007180073347434753476347734783479347A347D
:1007280041344234433444344534463447344834FD
:1007380049344A344B344C344D344E344F345034AD
:10074800513452345334543455345634573458345D
:1007580059345A343034313432343334343435340F
:10076800363437343834393400342A3407340434CE
:10077800013400340834053402342334093406348F
:1007880003340134023404340834FE34FD34FB34B9
:1007980049346E34733465347234743420346334B9
:1007A8006F346434653400347734613469347434B4
:1007B80069346E3467342E342E342E3400344F347A
:1007C8004B34213400344B344F34213400348312F9
:1007D80003138C1EF02BF12B042C4D08A03E840033
:1007E8001A08831380000130CD070318CE0A0030A1
:1007F800CE074D08A03E84008001D301D30A8C1295
:100808000B1D072C082C4F2CFB30F50075088B05A9
:100818000630810052080319122C132C4F2C01307A
:10082800CB070318CC0A0030CC070130C9070318DE
:10083800CA0A0030CA074A08803AFF0080307F029F
:10084800031D282CFB304902031C2B2C2C2C362C86
:10085800FF3083120313ED070318EE0AFF30EE078B
:10086800C901CA01831203134C08803AFF00BA3049
:100878007F02031D412C98304B02031C442C452C4D
:100888004F2C83120313D101D10ACB01CC013C3088
:10089800ED000030EE007908FF0078088A0077083C
:1008A8008400760E8300FE0E7E0E09008312031369
:1008B800C2003B08C0003A08BF003D08A1003C0840
:1008C800A0004008A3003F08A2000A128A115D2672
:1008D8000A128A11831203132108C0002008BF00DE
:1008E8000130BE003E08C2073F084004031D7D2CAE
:1008F8007E2C612C42088400831380010130C202DF
:100908003D08B5003C08B4003B08B7003A08B600FB
:100918000A128A11E9260A128A118312031334086B
:10092800C1003D08A1003C08A0003B08A3003A080C
:10093800A2000A128A115D260A128A118312031371
:100948002108BB002008BA000A304102031CAD2C64
:10095800AE2CB22C0730BE003E08C1073030BE00B6
:100968003E08C10742088400410883138000013013
:10097800C2023A083B04031DC22CC32C842C01304C
:10098800BE003E08C20708008316031388018901C8
:100998008312031389100911823083120313A400F0
:1009A800DD30A300A30BD62CA40BD62C8312031383
:1009B800891438300A128A15DE270A128A11213062
:1009C80083120313A4007530A300A30BE92CA40B16
:1009D800E92CEE2C38300A128A15DE270A128A1101
:1009E800073083120313A4007C30A300A30BFA2C56
:1009F800A40BFA2C000038300A128A15DE270A12D6
:100A08008A1108300A128A15DE270A128A110F3055
:100A18000A128A15DE270A128A1101300A128A156B
:100A2800DE270A128A110C300A128A15DE270A12EA
:100A38008A1180300A128A15DE270A128A110800E4
:100A4800831203130108BA00BB013A08A0003B084F
:100A5800A1000A128A15A2270A128A118312031307
:100A6800BE01BF013E3083120313B4000030B5004D
:100A78000A128A1116260A128A11831203132E08E3
:100A8800B7002D08B6000A128A11E9260A128A113F
:100A9800831203133508BD003408BC003C08013E2E
:100AA80084000A128A1174230A128A11BA003E08B5
:100AB8005F3E84003A08831380000130BE070318A4
:100AC800BF0A0030BF073F08803AFF0080307F022E
:100AD800031D702D05303E02031C732D742D362D19
:100AE8000D3083120313E4000A30E500E6015F309D
:100AF800080083120313A800A601A701A401A501F9
:100B0800B62D26082807A1002108840030300002ED
:100B1800031C8F2D902DB02D26082807A100210831
:100B280084003A30000203189A2D9B2DB02D260818
:100B38002807A100210884000008A2002408200733
:100B4800A300230884002208831780000130A4072B
:100B58000318A50A0030A5070130A6070318A70A3D
:100B68000030A70726082807A1002108840083135E
:100B78000008031DC02DC12D852D0130A4070318C1
:100B8800A50A0030A50724082807A1002108840029
:100B980080010800003083120313AC000030AB0062
:100BA8000030AA000030A900201CDB2DDC2DF32D1D
:100BB8002408A907250803110318013E0319E52D88
:100BC800AA07260803110318013E0319EC2DAB07E9
:100BD800270803110318013E0319F32DAC07013050
:100BE800A8000310A40DA50DA60DA70DA80BF52DA3
:100BF80001300310A30CA20CA10CA00CFF3E031D96
:100C0800FD2D2308220421042004031D0C2E0D2E83
:100C1800D82D2C08A3002B08A2002A08A100290817
:100C2800A0000800831203136C08A3006B08A2003D
:100C38006A08A1006908A0004130A700C630A600D4
:100C48004E30A5006D30A4000A128A11CE250A1272
:100C58008A11831203132308EC002208EB002108F1
:100C6800EA002008E9003930E9073030031831304C
:100C7800EA07003003180130EB0700300318013091
:100C8800EC076908AF006A08B0006B08B1006C088F
:100C9800B2001030B300320DB20CB10CB00CAF0C76
:100CA800B30B4F2EFF302F05AD007F303005AE005F
:100CB800080083120313A601A701200821040319C1
:100CC800662E672E9E2EA501A50A752E01300310EB
:100CD800A00DA10DFF3E031D6B2E0130A4002408BA
:100CE800A507A11F782E792E6A2E01300310A60DB4
:100CF800A70DFF3E031D7A2E21082302031D862E11
:100D080020082202031C892E8A2E912E2008A20276
:100D18002108031CA303A302261401300310A10C0D
:100D2800A00CFF3E031D922E0130A502031D9D2E2F
:100D38009E2E792E2708A1002608A0000800BF30A3
:100D480083120313B3003308831603138705871729
:100D5800243083120313B300330883160313980453
:100D680083120313981718162F08B3003008B4001D
:100D78003108B5003208B60006300310B30DB40DC3
:100D8800B50DB60DFF3E031DC12E3608A30035086C
:100D9800A2003408A1003308A0000130A7003130B8
:100DA800A6002D30A5000030A4000A128A11CD2219
:100DB8000A128A11831203132008FF3E83160313B5
:100DC80099008B170B178C1608008312031334082D
:100DD80035040319F02EF12E202FB901B90AFF2E80
:100DE80001300310B40DB50DFF3E031DF52E013083
:100DF800B8003808B907B51F022F032FF42E35089D
:100E08003702031D092F34083602031C0C2F0D2F3F
:100E1800132F3408B6023508031CB703B702013094
:100E28000310B50CB40CFF3E031D142F0130B9029A
:100E3800031D1F2F202F032F3708B5003608B400D5
:100E4800080083120313A601402F260823078400F5
:100E580024080318240AFF000A128A116A230A12B6
:100E68008A110A128A11CE270A128A1101308312B6
:100E78000313A5002508A6072608230784002408CD
:100E88000318240AFF000A128A116A230A128A1117
:100E9800003A031D502F512F292F080083120313E6
:100EA800A300831603138801891009118312031301
:100EB800891423088800200C031C0911031809153C
:100EC800143083120313A2007930A100A10B6A2FFA
:100ED800A20B6A2F83120313891014308312031391
:100EE800A2007930A100A10B772FA20B772F8312D4
:100EF80003138914080083120313A5008B2F0130F4
:100F0800A2002208A5070130A2002208A007200895
:100F1800840083170008A2002508840083130008B2
:100F2800A30022082302A4002408031D9C2F9D2F40
:100F3800A42F250884000008031DA32FA42F832FA6
:100F48002408A000A101A01BA10308008312031319
:100F5800C800C41FB02FB12FBF2F480884002D3000
:100F6800831380000130C7004708C807C309C409B4
:100F7800C30A0319C40A4408BB004308BA00460858
:100F8800BD004508BC0048080A128A115A240A12F2
:100F98008A11080083120313A2008914220888000A
:100FA8000915143083120313A1007930A000A00B97
:100FB800DB2FA10BDB2F831203138910143083124C
:100FC8000313A1007930A000A00BE82FA10BE82F94
:100FD800831203138914080083120313A1000C1E43
:100FE800F62FF72FF32FEF30A00020088C052108EB
:040FF8009900080054
:101F280001340034003400343C340034640080014F
:101F3800840A04060319003404069B2F8312031332
:101F48002008E9002108EA00EB01EC0108000F3045
:101F580083120313A0002008831603138804F830A3
:101F680083120313A00020088316031386050800B4
:101F780083120313A300A401D22F24082307A2006D
:101F88002208840000080A128A11F0270A128A150A
:101F9800013083120313A2002208A4072408230790
:101FA800A2002208840083130008031DDC2FDD2F04
:101FB800C12F080083120313A20089142208880085
:101FC8000911143083120313A1007930A000A00B6B
:101FD800EB2FA10BEB2F83120313891014308312FC
:101FE8000313A1007930A000A00BF82FA10BF82F44
:081FF800831203138914080091
:08400000FF3FFF3FFF3FFF3FC0
:02400E00723FFF
:00000001FF
