:060000000A128A1110280B
:10000800FE00030EF1000408F2000A08F3007F085E
:10001800F4000A128A11F52B0A128A1113280A12FF
:100028008A11DE270A128A11E0000A128A11DF27D4
:100038000A128A11E1000A128A11E0270A128A11AB
:10004800E2000A128A11E1270A128A11E3000A1251
:100058008A11E2270A128A11E4000A128A11E32798
:100068000A128A11E500831790308400C2300A1200
:100078008A11D6270A128A118313A0308400D2303D
:100088000A128A11D6270A128A114D30840060306C
:100098000A128A11D6270A128A11F501F601F70108
:1000A800F80183010A128A1159288316031386015D
:1000B800A03083120313C90049088B040530831646
:1000C8000313810006308312031381000030B2004D
:1000D8000130B100C230B0000030AF000A128A11FE
:1000E8003D260A128A110A128A1162240A128A11FA
:1000F8000A128A11AE270A128A1183120313A00169
:1001080001300A128A11EC260A128A115F30831212
:100118000313A3008030A4000A128A11BF260A1212
:100128008A118316031386010F3088008312031384
:100138005208031DA028A1286029D0010608073805
:1001480086005008503E84000A128A110A230A12B7
:100158008A1106058600CF014F084C3E84000A121A
:100168008A110A230A128A110805031DBC28BD2812
:10017800E428213083120313CA007530C900C90B63
:10018800C328CA0BC328C828831203134F084C3E40
:1001980084000A128A110A230A128A110805031D0B
:1001A800D628D728E4285008C90002300310C90D02
:1001B800FF3E031DDA284F084907D500D401D40AA9
:1001C8000130C9004908CF0704304F02031CED284D
:1001D800EE28B02854080319F228F32856290830C5
:1001E8005506031DF828F9282029A00101300A1214
:1001F8008A11EC260A128A110A128A11BE240A12DE
:100208008A1183120313CC004C08A3000030A40009
:100218000A128A11BF260A128A11831203134C0884
:10022800A2000030A3000A128A1119270A128A11A3
:1002380083120313D201D20A07305506031D25295C
:1002480026294329A00101300A128A11EC260A1234
:100258008A11723083120313A3008030A4000A129B
:100268008A11BF260A128A116A3083120313A20068
:100278008030A3000A128A1119270A128A118312E0
:100288000313D40108080F3888004D2908080F38CF
:1002980088000F300805C9000F304906031D55298D
:1002A80056294A290130C9004908D00703305002AD
:1002B800031C5F296029A2285208031964296529AB
:1002C80095285308031969296A29AF29A001013023
:1002D8000A128A11EC260A128A1153308312031368
:1002E800A3008030A4000A128A11BF260A128A11BC
:1002F80083120313A001C0300A128A11EC260A12D5
:100308008A11903083120313A000A0300A128A11B8
:1003180017250A128A11903083120313A3000130A3
:10032800A4000A128A11BF260A128A117F3083128A
:100338000313CB00D430CA003130C900C90BA2293D
:10034800CA0BA229CB0BA22983120313CD01CE011C
:10035800D201D30195286508C4006408C3000A3097
:10036800C5000030C6005E300A128A1146270A12FC
:100378008A1183120313A001C0300A128A11EC26D5
:100388000A128A115E3083120313A3000030A400FE
:100398000A128A11BF260A128A11831203135108FE
:1003A8000319D729D829EF29A00101300A128A1187
:1003B800EC260A128A115F3083120313A3008030DF
:1003C800A4000A128A11BF260A128A118312031383
:1003D800D101D201952895280A128A111028831272
:1003E8000313AA01A31FF929FA29072AA009A109B9
:1003F800A209A309A00A0319A10A0319A20A031949
:10040800A30AAA01AA0AA71F0A2A0B2A1A2AA409B8
:10041800A509A609A709A40A0319A50A0319A60A82
:100428000319A70A0130A8002808AA060030AE0060
:100438000030AD000030AC000030AB0023082204CF
:10044800210420040319292A2A2A772AA901A90A9A
:100458003A2A0130A8000310A00DA10DA20DA30D8A
:10046800A80B2F2A0130A8002808A907A31F3D2A96
:100478003E2A2D2A0130A8000310AB0DAC0DAD0D9E
:10048800AE0DA80B402A23082702031D552A22086F
:100498002602031D552A21082502031D552A200876
:1004A8002402031C582A592A682A2008A402210871
:1004B800031C210FA5022208031C220FA6022308F1
:1004C800031C230FA7022B1401300310A30CA20C4A
:1004D800A10CA00CFF3E031D692A0130A902031DCF
:1004E800762A772A3E2A2A0803197B2A7C2A872A11
:1004F800AB09AC09AD09AE09AB0A0319AC0A03197B
:10050800AD0A0319AE0A2E08A3002D08A2002C0874
:08051800A1002B08A00008005F
:10060000FF1B0A2B83137F1883170008840A031922
:10061000FF0A080003308A000408840A82070034B5
:100620006134623463346434653466346734683406
:1006300069346A346B346C346D346E346F347034B6
:100640007134723473347434753476347734783466
:1006500079347A3441344234433444344534463472
:100660004734483449344A344B344C344D344E3496
:100670004F34503451345234533454345534563446
:100680005734583459345A343034313432343334A2
:1006900034343534363437343834393400342A3449
:1006A000073404340134003408340534023423346C
:1006B0000934063403340134023404340834FE347B
:1006C000FD34FB3449346E3473346534723474341D
:1006D000203463346F3464346534003477346134E7
:1006E0006934743469346E3467342E342E342E34C5
:1006F0000034323438343734353433340D340A343A
:1007000000343234383437343534333400348312DF
:100710000313C2003B08C0003A08BF003D08A10017
:100720003C08A0004008A3003F08A2000A128A115A
:10073000F7250A128A11831203132108C00020082A
:10074000BF000130BE003E08C2073F084004031D41
:10075000AA2BAB2B8E2B420884008313800101301F
:10076000C2023D08B5003C08B4003B08B7003A0897
:10077000B6000A128A1183260A128A118312031301
:100780003408C1003D08A1003C08A0003B08A300BC
:100790003A08A2000A128A11F7250A128A11831256
:1007A00003132108BB002008BA000A304102031CD1
:1007B000DA2BDB2BDF2B0730BE003E08C1073030C1
:1007C000BE003E08C1074208840041088313800030
:1007D0000130C2023A083B04031DEF2BF02BB12B72
:1007E0000130BE003E08C2070800831203138C1EAE
:1007F000FA2BFB2B0E2C4D08A03E84001A08831305
:1008000080000130CD070318CE0A0030CE074D0816
:10081000A03E84008001D301D30A8C120B1D112C41
:10082000122C572CFB30F00070088B05063081002D
:10083000520803191C2C1D2C572C0130F7070318E4
:10084000F80A0030F8070130F5070318F60A0030FF
:10085000F6077608803AFF0080307F02031D322CB5
:10086000FB307502031C352C362C402CFF308312D4
:100870000313E4070318E50AFF30E507F501F60165
:100880007808803AFF00BA307F02031D492C983067
:100890007702031C4C2C4D2C572C83120313D101CF
:1008A000D10AF701F8013C30E4000030E50074089B
:1008B000FF0073088A0072088400710E8300FE0E28
:1008C0007E0E090083160313880189018312031326
:1008D00089100911823083120313A400DD30A300B4
:1008E000A30B702CA40B702C8312031389143830C3
:1008F0000A128A118C270A128A11213083120313DB
:10090000A4007530A300A30B832CA40B832C882C8C
:1009100038300A128A118C270A128A110730831282
:100920000313A4007C30A300A30B942CA40B942CE1
:10093000000038300A128A118C270A128A110830F6
:100940000A128A118C270A128A110F300A128A1190
:100950008C270A128A1101300A128A118C270A1276
:100960008A110C300A128A118C270A128A118030DF
:100970000A128A118C270A128A11080083120313A3
:100980000108BA00BB013A08A0003B08A1000A1206
:100990008A11CD270A128A1183120313BE01BF01E7
:1009A0003E3083120313B4000030B5000A128A11DE
:1009B000B0250A128A11831203132E08B7002D08DE
:1009C000B6000A128A1183260A128A1183120313AF
:1009D0003508BD003408BC003C08013E84000A1202
:1009E0008A110A230A128A11BA003E08563E840070
:1009F0003A08831380000130BE070318BF0A003095
:100A0000BF073F08803AFF0080307F02031D0A2D98
:100A100005303E02031C0D2D0E2DD02C0D308312FF
:100A20000313DB000A30DC00DD01563008008312BE
:100A30000313A800A601A701A401A501502D2608B3
:100A40002807A1002108840030300002031C292D52
:100A50002A2D4A2D26082807A100210884003A30B3
:100A600000020318342D352D4A2D26082807A10031
:100A7000210884000008A20024082007A3002308FE
:100A800084002208831780000130A4070318A50AF8
:100A90000030A5070130A6070318A70A0030A707F2
:100AA00026082807A1002108840083130008031DDD
:100AB0005A2D5B2D1F2D0130A4070318A50A003005
:100AC000A50724082807A100210884008001080048
:100AD000003083120313AC000030AB000030AA00DA
:100AE0000030A900201C752D762D8D2D2408A90716
:100AF000250803110318013E03197F2DAA072608B4
:100B000003110318013E0319862DAB0727080311B3
:100B10000318013E03198D2DAC070130A800031006
:100B2000A40DA50DA60DA70DA80B8F2D0130031048
:100B3000A30CA20CA10CA00CFF3E031D972D2308B3
:100B4000220421042004031DA62DA72D722D2C089C
:100B5000A3002B08A2002A08A1002908A000080071
:100B6000831203136308A3006208A2006108A100B6
:100B70006008A0004130A700C630A6004E30A50096
:100B80006D30A4000A128A1168250A128A11831294
:100B900003132308E3002208E2002108E1002008F3
:100BA000E0003930E007303003183130E107003021
:100BB00003180130E207003003180130E307600832
:100BC000AF006108B0006208B1006308B2001030E5
:100BD000B300320DB20CB10CB00CAF0CB30BE92D5D
:100BE000FF302F05AD007F303005AE0008008312C6
:100BF0000313A601A701200821040319002E012ECA
:100C0000382EA501A50A0F2E01300310A00DA10D4D
:100C1000FF3E031D052E0130A4002408A507A11FD7
:100C2000122E132E042E01300310A60DA70DFF3E29
:100C3000031D142E21082302031D202E200822024A
:100C4000031C232E242E2B2E2008A2022108031C75
:100C5000A303A302261401300310A10CA00CFF3E35
:100C6000031D2C2E0130A502031D372E382E132E06
:100C70002708A1002608A0000800BF308312031334
:100C8000B3003308831603138705871724308312B4
:100C90000313B3003308831603139804831203135A
:100CA000981718162F08B3003008B4003108B500A3
:100CB0003208B60006300310B30DB40DB50DB60DF5
:100CC000FF3E031D5B2E3608A3003508A200340842
:100CD000A1003308A0000130A7003130A6002D305C
:100CE000A5000030A4000A128A11F3210A128A1109
:100CF000831203132008FF3E8316031399008B17FA
:100D00000B178C16080083120313340835040319DB
:100D10008A2E8B2EBA2EB901B90A992E01300310F2
:100D2000B40DB50DFF3E031D8F2E0130B8003808FD
:100D3000B907B51F9C2E9D2E8E2E35083702031D38
:100D4000A32E34083602031CA62EA72EAD2E34087F
:100D5000B6023508031CB703B70201300310B50C07
:100D6000B40CFF3E031DAE2E0130B902031DB92E97
:100D7000BA2E9D2E3708B5003608B400080083123D
:100D80000313A601DA2E260823078400240803187B
:100D9000240AFF000A128A1100230A128A110A1279
:100DA0008A116A270A128A11013083120313A500DF
:100DB0002508A60726082307840024080318240A08
:100DC000FF000A128A1100230A128A11003A031D39
:100DD000EA2EEB2EC32E080083120313A300831602
:100DE000031388018910091183120313891423083E
:100DF0008800200C031C09110318091514308312F4
:100E00000313A2007930A100A10B042FA20B042F21
:100E1000831203138910143083120313A200793054
:100E2000A100A10B112FA20B112F83120313891400
:100E3000080083120313A501342F2508220784001C
:100E400023080318230AFF000A128A1100230A123A
:100E50008A110A128A11BF270A128A1101308312DD
:100E60000313A4002408A5072508220784002308EB
:100E70000318230AFF000A128A1100230A128A119A
:100E8000003A031D442F452F1D2F08008312031322
:100E9000C800C41F4C2F4D2F5B2F480884002D30F5
:100EA000831380000130C7004708C807C309C4097D
:100EB000C30A0319C40A4408BB004308BA00460821
:100EC000BD004508BC0048080A128A1187230A128F
:100ED0008A11080083120313A200891422088800D3
:100EE0000915143083120313A1007930A000A00B60
:100EF000772FA10B772F83120313891014308312DD
:100F00000313A1007930A000A00B842FA10B842F24
:100F1000831203138914080083120313A200891497
:100F2000220888000911143083120313A1007930BC
:100F3000A000A00B992FA10B992F831203138910E6
:100F4000143083120313A1007930A000A00BA62F48
:100F5000A10BA62F83120313891408000F308312EC
:100F60000313A0002008831603138804F8308312AB
:100F70000313A000200883160313860508008312BC
:100F80000313A1000C1EC52FC62FC22FEF30A000E7
:100F900020088C05210899000800831203132008FB
:100FA000E0002108E100E201E301080064008001A3
:100FB000840A0406031900340406D72F01340034D0
:080FC000003400343C3400341D
:08400000FF3FFF3FFF3FFF3FC0
:02400E00723FFF
:00000001FF
